:0200000407FCF7
:10000000C087FC07B500FC07BD00FC07D500FC0756
:1000100000000000000000000000000000000000E0
:10002000000000000000000000000000ED00FC07E0
:100030000000000000000000EF00FC07F100FC07DA
:10004000F300FC07F300FC07D102FC07C102FC0728
:10005000A902FC07F300FC07F300FC07F300FC0710
:10006000F300FC07F300FC072B02FC073502FC073A
:100070003F02FC074902FC075302FC07F300FC07A0
:10008000F300FC07F300FC07F300FC07F300FC0798
:10009000F300FC07F300FC07F300FC07F300FC0788
:1000A0000348854600F076F8004800479503FC07B2
:1000B000C087FC070F4880470F480047042071465F
:1000C000084203D0EFF309800C490847EFF308809A
:1000D0000A49084704207146084203D0EFF309801B
:1000E00007490847EFF3088005490847FEE7FEE7A0
:1000F000FEE7FEE7F111FC07A100FC07BD02FC07CB
:10010000A502FC0700280CD000BF00BF00BF00BF45
:1001100000BF00BF00BF00BF00BF00BF00BF401E48
:10012000F0D17047421C0178401C0029FBD1801A95
:100130007047F0B51FB40646002082B00546402443
:10014000019100901BE0019922460F46304600F0D5
:1001500049F8049A059B801A994110D31046194614
:10016000224600F02FF8361A8F41019722460120CF
:100170000021009F00F026F838184D4100902046DD
:10018000641E0028DFDC019B00982946324607B038
:10019000F0BD00001CB509480090094801900546D3
:1001A0000126009C05E0E36807CC33430C3C9847EC
:1001B0001034AC42F7D3FFF777FF00007012FC0752
:1001C0009012FC0710B5202A04DB0146203A91402A
:1001D000002010BD914020239C1A0346E3401943A0
:1001E000904010BD10B5202A04DB0846203AD040CC
:1001F000002110BD0B46D340D0402024A21A9140CC
:100200000843194610BD03460B439B0703D009E082
:1002100008C9121F08C0042AFAD203E00B78037041
:10022000401C491C521EF9D2704780B50A2000F0CC
:1002300015F880BD80B50B2000F010F880BD80B5AA
:100240000C2000F00BF880BD80B50D2000F006F802
:1002500080BD80B50E2000F001F880BDF0B5C0B2C1
:1002600003460A3B01210A469A4093B20B4D5C19A2
:10027000661C5E400A4B1C8800272E4203D07F1C60
:100280007608B6B2F9E79443BAB20D4695402543D5
:100290001D80814008480160F0BDC046FEFF01009E
:1002A0000E140050FEE700000248008802481021AA
:1002B000016070472C13005080E200E0FEE7000070
:1002C00080B5024800F0A2FC80BDC046001100507D
:1002D00080B5024800F09AFC80BDC0460010005076
:1002E000F8B50091110253020B4301256E021E4026
:1002F0000027114B25492C040DD06D1E1C88A40726
:10030000FCD5C45D34430C807F1C1C8A002CF2D0C9
:100310001C3B188802E00024D00701D1009906E0B8
:10032000009918884007FCD518888006FCD400295D
:1003300000D00C80F8BDC04670130050BCB50C4610
:1003400001AA10706946002510462A46FFF7C8FF2B
:100350000E490F482A46002D16D1002A08D1828B5B
:10036000920704D5032212020A800122F5E7002237
:10037000838C9B0603D00B882370012500E00025A9
:10038000838D002BE7D00088BCBDC0461013005001
:1003900054130050E0B001273A02A5490A801046E4
:1003A0000A30888280200D9008800B921046093018
:1003B0004882A048082505809F4E30885FAC208089
:1003C0002088C046C046208804210F91C9430842B6
:1003D00002D00020308002E0B089B843B0813346BB
:1003E000B08B9649014007200E90C0020818B083D8
:1003F000934C208828432080E08D06218843E085A7
:10040000B803B28B0243B28320888E4A0240228016
:1004100060880843A8436080052005900607718D19
:10042000894AFF32E08D10400C970F270B9A11423A
:10043000069503971AD13903032252021043E0852F
:10044000E08D0843E085988BA8439883988B04211E
:100450008843988360887D4901406180E08D0C9FCE
:100460003843E085708D4007FCD517E00C9FB9023A
:100470000843E085E08D76490140F8030818E085DF
:10048000988B28439883988B0F9988439883E08DA5
:10049000B843E085988B402188439883988B03214B
:1004A0000A9108439883664C2188202211434020FA
:1004B0000990C04301402180198C029211430140F0
:1004C0001984F18A0D9A11430140F182318EFF2285
:1004D00091433186318F0F9A11431822914331870E
:1004E000318FA0220A4302403287EFF3108587F351
:1004F0001088708D0B99084209D05648077000F09B
:1005000061FB554908704E48C08D384048703088AE
:100510000D9908433080514A10680E998843106045
:1005200050684007FCD54E4810614E485061002D80
:1005300002D087F3108802E0002080F31088106852
:100540000E99084010A908700878022820D0708DF4
:100550000B99084213D0144600F034FB0A2802D845
:100560000B2000F039FB3648C08DC007224606D16B
:100570003349C88D3843C885708D4007FCD5106855
:100580000221014305988143116050684007FCD562
:1005900035480068C1B20C20AA29014600D00F9945
:1005A0003288824388183080C046C04668202F4D6C
:1005B000002407902C523846C046C0460A980002D4
:1005C00004902B48001F00682A498842089400D0F4
:1005D0000AE103980107042003940C460546244AC7
:1005E0001118081FEC32904200D301E100685690C8
:1005F000569B2746234009200407569AA34246D11A
:10060000569B1C0AE3B20F93D2B2921F112A00D953
:10061000CAE0C0467A441279520097442D78C5C585
:10062000C5C5C5C5C5C5C594A7BA74C5898EC0461C
:10063000023000500033005004030050FFC300009C
:1006400052000050FFBF000000F0FFFFFFF9000064
:10065000FF0F00007880FC070880FC070000F4070B
:100660000F009909090404A4D07FF8070C80FC0747
:10067000D47EF807A5A5A5A5D04A0798105CC000B0
:1006800010180F9A9200FFF7BEFD07994BE0900FEC
:1006900010D05698CA4988420CD8284608303146AE
:1006A0002831569A8A423C4623D1C6496958C64ADF
:1006B000118093E756983C4638400E9909078842C6
:1006C00003D10020C046C04611E0569820400C9946
:1006D000C90788420BD0569820400599490788429F
:1006E00005D0569820400A99490788426CD1281DA8
:1006F00074E7B11C569A8A425CD1B24969586622A5
:10070000AE4B99526AE7AF482858622118E0692237
:100710000192AA4B985CC000181810300F9A9200F2
:10072000FFF771FD0199A54A505C001950543BE058
:10073000A4482858A149086536E0A24828586421F1
:100740009E4A505230E09F4AA9584843AA58120C7A
:10075000801A00B2C008F74B4033D882501A810883
:10076000F64A11400818401C98821DE0F24AA95828
:100770004843AA58120C801A00B2C008ED4B40330F
:100780005883501A8108ED4A11400818401C1883FC
:100790000AE0039CA00010AA10180F9A9200FFF71D
:1007A00032FD0F98041903940F9880002818001D3B
:1007B0003C4613E731462431569A8A4209D1DE4934
:1007C0006958F44A518009E75698401C28460FD0D2
:1007D00004E731462031569A8A4200D0FEE6D649D7
:1007E0006958EC4A9180F9E666202D5AC94C31E0EF
:1007F000D04C0799605C400860546920215C49082E
:10080000215420464030109981830921119A514387
:10081000130CC91A09B2C9080184991A8A08C74B6E
:100820001A405118491CC183808C002803D10498B8
:10083000E830642160526620255A002DB54C0C9F8B
:1008400008D1BB490968C9B2AA290D9D00D06E25FF
:10085000B8490D52B08CB843B0840D20FFF752FC5C
:100860007089384302210F91884370817089400656
:10087000FCD575807D20C000FFF744FC70890A9983
:100880008843708170890006FCD5EFF3108587F3EB
:10089000108830880D9908433080A24A10680E995C
:1008A0008843106050684007FCD59F4810619F48FE
:1008B000506130880D9988433080708D0B990842C3
:1008C0000DD0964808990170954F387800F084F95A
:1008D00078780C9F002802D1E08DB843E085002D88
:1008E00002D087F3108802E0089880F31088708D9A
:1008F0000B9908421AD089480078012803D100F0EA
:1009000061F91B2812D88448401C2188014201D17A
:100910007F48808B82494F701B20087000F05CF983
:10092000E08D3843E085708D4007FCD5EFF31080F3
:1009300087F31088B188099A1143B180002803D049
:1009400087F31088089C02E0089C84F310887348A1
:1009500009990F9A42527A490A887A4A93890D9FD7
:100960003B439381784B0B251D80069B138094801D
:100970009389BB4393810A9B93810C9D8D830C8447
:100980008C84624A029F5780049B191DD1816902A1
:100990005180D38244638463C4635D4908892843DA
:1009A0000881EFF3108085F31088B1883943B18056
:1009B00000280BD085F310880AE0C0460C80FC07A5
:1009C0004C420050D47EF8070080FC0784F3108866
:1009D0005E480188A94301800188C907FCD15C49B0
:1009E0000C8648228A824F220A83069A8A8317221B
:1009F0000A840A880F9B1A4304239A430A801F2201
:100A0000D2438B8F13408B870B8F13400B870A8841
:100A10002A430A800A88099B1A430A800A883A43B3
:100A20000A800B88102293430B803F239B028C8803
:100A30001C4018348C800188294301800188C90733
:100A4000FCD0444801680D9B19437F239943016002
:100A5000414802605FACB020207056A8142101709C
:100A600010AE3146089D2A46FFF73AFC0222204686
:100A70003146FFF735FC5EAC257043202146FFF779
:100A80005DFC227856AC35A1204600F04DF9204699
:100A900000F082F855A8057054A8057053A8057099
:100AA00052A8057051A8057050A80570304C282038
:100AB00055AD2946A047292054A9A0472A2053AE66
:100AC0003146A0472B2052A9A0472C2051AF3946D0
:100AD000A0472D2050A9A04738785099090208183E
:100AE00000B231782A78529B549D009028028018D9
:100AF00002B21802401803B210AD28461DA100F042
:100B000013F9284600F048F8D1E7C04602300050FB
:100B10000403005052000050FF0F00007880FC07D3
:100B20000880FC070000F4070F009909090404A4D9
:100B3000D07FF8070C80FC07D47EF807FF3F000049
:100B40007C11005000110050C01100506C13005077
:100B50000013005004E400E000E100E057484F5F5C
:100B6000414D5F49203D203078253032580D0A0034
:100B70003D03FC0758203D202564202020202059DB
:100B8000203D20256420202020205A203D2025645F
:100B90000D0A00000080FC0710B50446FFF7C2FAFA
:100BA000604900224A8508850549020407D0227859
:100BB0008B8A9B06FCD50A80401E641CF5E710BD9D
:100BC000001100500E480188890918220A40008847
:100BD0008004400F8018704710B51F214902820120
:100BE0000A4007490B88074C1C4014430C800A88B4
:100BF000054B13404007800C1818088010BDC046F4
:100C000054000050FFF90000FFC70000F8B504468B
:100C10004348201A411E8841400142490D182E1DAB
:100C2000143527467C373EE0B088F18881422ED2C9
:100C3000884238D02289C0231340C02B03D13A8880
:100C4000920703D42FE0A28A92062CD54A1CF28088
:100C50003368595C21801146EAE72A68002A22D0CD
:100C6000012105E02A68002A1DD0A08A9E210140AA
:100C70002046904717E0204600F030F8A088012178
:100C80008843A080B16900290DD0F0890AE0A188CD
:100C900002229143A180A18880229143A1807169A1
:100CA000002900D0884720890F210140481E0B28C9
:100CB000F9D8C04678440079400087440E0D0C08EE
:100CC0000C07060C0C0C0C05D5E7C6E7CAE7204656
:100CD00000F004F8E7E7E6E7A6E7F8BD70B51049CD
:100CE000411A4A1E914149010E4A5218138A518AEB
:100CF000121D994209D2848AE4070FD004884D1C42
:100D0000D581966874542946F3E783880124A34368
:100D100083809269002A01D088B2904770BDC04696
:100D2000001000507880FC070FB410B504A9074BE1
:100D300002AA039800F01CF8044602A9002000F063
:100D400051FA204610BC08BC04B01847E511FC0756
:100D500002E008C8121F08C1002AFAD17047704784
:100D6000002001E001C1121F002AFBD170470000E2
:100D7000FFB591B00F460546002606E025280AD0AB
:100D8000149A139990476D1C761C28780028F5D189
:100D9000304615B0F0BD002400940121F34A0294BE
:100DA00000E004436D1C2B780846203B984010421D
:100DB000F7D128782A280ED0022128780246303A26
:100DC000092A15D8009A0A235A43303A80180C434E
:100DD0006D1C0090F1E701CF0090002805DA01209A
:100DE00040030443009840420090022004436D1CDD
:100DF00028782E2815D10420044368786D1C2A28F1
:100E00000AD101CF6D1C02900BE002990A225143D6
:100E1000303940186D1C0290287801463039092974
:100E2000F3D928786C2810D006DC4C281AD0682812
:100E30000ED06A2817D104E0742813D07A2812D172
:100E400010E00120400504430CE00121090501E008
:100E5000032109050C436978814203D10120000573
:100E600024186D1C6D1C287803906E281ED00CDC95
:100E7000632831D004DC00288AD0582811D1B2E090
:100E800064287BD069280CD178E073282DD004DC4D
:100E90006F2870D0702804D1A7E075286CD078280E
:100EA0006BD0149A13999047761C62E06002400F51
:100EB000022807D003280AD0042838680AD0066020
:100EC0003F1D56E03868F11706604160F8E7386862
:100ED0000680F5E70670F3E7387869460874002065
:100EE000487404A80390012003E0386803900020B0
:100EF000C0433F1D61070FD5002101E00199491C46
:100F0000029A0191914213DA8142F7DB019A039927
:100F1000895C0029F2D10BE0002101E00199491C14
:100F200001918142FADB019A0399895C0029F5D18C
:100F300001990098139A401A00902146149B00F0E2
:100F40003BF901998019461807E003980399007846
:100F5000491C0391149A139990470198401E0190DF
:100F6000401CF2D12146149B139A009800F014F90A
:100F700086196D1C09E741E033E034E00A200021C6
:100F8000049005916002410F022905D001CFC217DC
:100F90009446032905D007E0FF1DFF08FF0003CF9B
:100FA00006E000B2C2179446042902D140B2C1172C
:100FB0008C4600226146944506DA0A4600214042EA
:100FC00091418C462D2102E0210504D52B216A4652
:100FD0001176012103E0E10701D02021F7E701911B
:100FE00054E00A200BE0102009E0102004900021BA
:100FF0000420044308200591029003E0082000210A
:10100000059104906002410F022905D001CF002212
:101010009446032906D006E0FF1DFF08FF0003CF1A
:101020008C4603E080B2042900D1C0B200210191B6
:1010300021072BD50399702906D0049A1021059B0E
:101040004A401A4305D00EE040216A46117601213C
:1010500008E06146014306D030216A4611760399C3
:10106000517602210191049A0821059B4A401A43B6
:101070000CD16146014301D1610707D530216A4691
:101080001176012101910299491E02910399582973
:1010900004D037A103910FA90F910DE039A1F9E711
:1010A0006146059B049AFFF744F8039B8C469B5CC2
:1010B0000F9A521E0F92137061460143F0D10F98A0
:1010C00007A9081A20300390600704D50120000406
:1010D0008443029801E0012002900399884201DDD7
:1010E000401A00E000204118029001980918009869
:1010F000401A0090E00306D42146149B139A0098EE
:1011000000F05AF886190020049008E006A9085C4F
:10111000149A139990470498401C761C04900199E6
:101120008842F3DBE0030CD52146149B139A009808
:1011300000F042F8861904E0149A30201399904781
:10114000761C0299481E02900029F5DC08E00F98F1
:101150000F990078491C0F91149A13999047761CA7
:101160000399481E03900029F1DCFBE609280100E1
:10117000303132333435363738396162636465660D
:1011800000000000303132333435363738394142CF
:101190004344454600000000F8B5044600251E46BD
:1011A0001746880404D405E039462020B0476D1C5A
:1011B000641EF9D52846F8BDFFB50446002581B068
:1011C0001E46C80301D5302700E02027880404D537
:1011D00005E038460399B0476D1C641EF9D52846D2
:1011E00005B0F0BD0A68531C0B601070704700001A
:1011F0001A498888072290438880052000078A8939
:10120000D2070DD0098800290AD115490A8802851C
:101210004A88828489880184418A124A0A4042822B
:10122000114906220A800121CA03104B1A60BFF33C
:101230004F8FBFF36F8F02221A60BFF34F8FBFF340
:101240006F8F1960BFF34F8FBFF36F8F41890422F7
:10125000914341810021018062B670470403005030
:101260000080FC077FFE00000034005080E100E0B9
:101270009012FC070080FC0708000000500DFC07DE
:101280009812FC070880FC07B8070000600DFC07F7
:0812900000008E070E000000B3
:0400000507FC00A153
:00000001FF
